{
  "contractName": "Betting",
  "abi": [
    {
      "constant": true,
      "inputs": [],
      "name": "betsCount",
      "outputs": [
        {
          "name": "",
          "type": "uint8"
        }
      ],
      "payable": false,
      "stateMutability": "view",
      "type": "function"
    },
    {
      "constant": true,
      "inputs": [
        {
          "name": "",
          "type": "uint256"
        }
      ],
      "name": "bets",
      "outputs": [
        {
          "name": "minSum",
          "type": "uint256"
        },
        {
          "name": "cooldown",
          "type": "uint256"
        }
      ],
      "payable": false,
      "stateMutability": "view",
      "type": "function"
    },
    {
      "constant": true,
      "inputs": [],
      "name": "betKillCount",
      "outputs": [
        {
          "name": "",
          "type": "uint8"
        }
      ],
      "payable": false,
      "stateMutability": "view",
      "type": "function"
    },
    {
      "inputs": [],
      "payable": false,
      "stateMutability": "nonpayable",
      "type": "constructor"
    },
    {
      "constant": true,
      "inputs": [
        {
          "name": "_betIndex",
          "type": "uint256"
        }
      ],
      "name": "getBet",
      "outputs": [
        {
          "name": "",
          "type": "uint256"
        },
        {
          "name": "",
          "type": "uint256"
        }
      ],
      "payable": false,
      "stateMutability": "view",
      "type": "function"
    },
    {
      "constant": true,
      "inputs": [
        {
          "name": "_sum",
          "type": "uint256"
        }
      ],
      "name": "getBetIndex",
      "outputs": [
        {
          "name": "",
          "type": "uint256"
        }
      ],
      "payable": false,
      "stateMutability": "view",
      "type": "function"
    },
    {
      "constant": true,
      "inputs": [
        {
          "name": "_index",
          "type": "uint256"
        }
      ],
      "name": "getMinBetIndexForKill",
      "outputs": [
        {
          "name": "",
          "type": "uint256"
        }
      ],
      "payable": false,
      "stateMutability": "view",
      "type": "function"
    }
  ],
  "bytecode": "0x608060405234801561001057600080fd5b5060006040805190810160405280662386f26fc100008152602001620151808152509080600181540180825580915050906001820390600052602060002090600202016000909192909190915060008201518160000155602082015181600101555050506000604080519081016040528066470de4df82000081526020016201437081525090806001815401808255809150509060018203906000526020600020906002020160009091929091909150600082015181600001556020820151816001015550505060006040805190810160405280666a94d74f43000081526020016201356081525090806001815401808255809150509060018203906000526020600020906002020160009091929091909150600082015181600001556020820151816001015550505060006040805190810160405280668e1bc9bf0400008152602001620127508152509080600181540180825580915050906001820390600052602060002090600202016000909192909190915060008201518160000155602082015181600101555050506000604080519081016040528066b1a2bc2ec500008152602001620119408152509080600181540180825580915050906001820390600052602060002090600202016000909192909190915060008201518160000155602082015181600101555050506000604080519081016040528066d529ae9e860000815260200162010b308152509080600181540180825580915050906001820390600052602060002090600202016000909192909190915060008201518160000155602082015181600101555050506000604080519081016040528066f8b0a10e470000815260200161fd208152509080600181540180825580915050906001820390600052602060002090600202016000909192909190915060008201518160000155602082015181600101555050506000604080519081016040528067011c37937e080000815260200161ef108152509080600181540180825580915050906001820390600052602060002090600202016000909192909190915060008201518160000155602082015181600101555050506000604080519081016040528067013fbe85edc90000815260200161e1008152509080600181540180825580915050906001820390600052602060002090600202016000909192909190915060008201518160000155602082015181600101555050506000604080519081016040528067016345785d8a0000815260200161d2f081525090806001815401808255809150509060018203906000526020600020906002020160009091929091909150600082015181600001556020820151816001015550505060006040805190810160405280670186cc6acd4b0000815260200161c4e0815250908060018154018082558091505090600182039060005260206000209060020201600090919290919091506000820151816000015560208201518160010155505050600060408051908101604052806701aa535d3d0c0000815260200161b6d0815250908060018154018082558091505090600182039060005260206000209060020201600090919290919091506000820151816000015560208201518160010155505050600060408051908101604052806701cdda4faccd0000815260200161a8c0815250908060018154018082558091505090600182039060005260206000209060020201600090919290919091506000820151816000015560208201518160010155505050600060408051908101604052806701f161421c8e00008152602001619ab081525090806001815401808255809150509060018203906000526020600020906002020160009091929091909150600082015181600001556020820151816001015550505060006040805190810160405280670214e8348c4f00008152602001618ca0815250908060018154018082558091505090600182039060005260206000209060020201600090919290919091506000820151816000015560208201518160010155505050600060408051908101604052806702386f26fc1000008152602001617e908152509080600181540180825580915050906001820390600052602060002090600202016000909192909190915060008201518160000155602082015181600101555050506000604080519081016040528067025bf6196bd1000081526020016170808152509080600181540180825580915050906001820390600052602060002090600202016000909192909190915060008201518160000155602082015181600101555050506000604080519081016040528067027f7d0bdb9200008152602001616270815250908060018154018082558091505090600182039060005260206000209060020201600090919290919091506000820151816000015560208201518160010155505050600060408051908101604052806702a303fe4b5300008152602001615460815250908060018154018082558091505090600182039060005260206000209060020201600090919290919091506000820151816000015560208201518160010155505050600060408051908101604052806702c68af0bb1400008152602001614650815250908060018154018082558091505090600182039060005260206000209060020201600090919290919091506000820151816000015560208201518160010155505050600060408051908101604052806702ea11e32ad5000081526020016138408152509080600181540180825580915050906001820390600052602060002090600202016000909192909190915060008201518160000155602082015181600101555050506000604080519081016040528067030d98d59a9600008152602001612a30815250908060018154018082558091505090600182039060005260206000209060020201600090919290919091506000820151816000015560208201518160010155505050600060408051908101604052806703782dace9d900008152602001611c20815250908060018154018082558091505090600182039060005260206000209060020201600090919290919091506000820151816000015560208201518160010155505050600060408051908101604052806706f05b59d3b200008152602001610e1081525090806001815401808255809150509060018203906000526020600020906002020160009091929091909150600082015181600001556020820151816001015550505060006040805190810160405280670de0b6b3a7640000815260200161096081525090806001815401808255809150509060018203906000526020600020906002020160009091929091909150600082015181600001556020820151816001015550505060006040805190810160405280674563918244f4000081526020016104b081525090806001815401808255809150509060018203906000526020600020906002020160009091929091909150600082015181600001556020820151816001015550505060006040805190810160405280678ac7230489e800008152602001610258815250908060018154018082558091505090600182039060005260206000209060020201600090919290919091506000820151816000015560208201518160010155505050600060408051908101604052806802b5e3af16b1880000815260200161012c8152509080600181540180825580915050906001820390600052602060002090600202016000909192909190915060008201518160000155602082015181600101555050506103c280610af46000396000f300608060405260043610610078576000357c0100000000000000000000000000000000000000000000000000000000900463ffffffff168063061e494f1461007d5780631a8ba72f146100c557806322af00fa146100f657806368eaebb41461013e5780637d4da0ad1461017f578063d72f61bf146101b0575b600080fd5b34801561008957600080fd5b506100a8600480360381019080803590602001909291905050506101f1565b604051808381526020018281526020019250505060405180910390f35b3480156100d157600080fd5b506100da61024e565b604051808260ff1660ff16815260200191505060405180910390f35b34801561010257600080fd5b5061012160048036038101908080359060200190929190505050610253565b604051808381526020018281526020019250505060405180910390f35b34801561014a57600080fd5b5061016960048036038101908080359060200190929190505050610286565b6040518082815260200191505060405180910390f35b34801561018b57600080fd5b50610194610351565b604051808260ff1660ff16815260200191505060405180910390f35b3480156101bc57600080fd5b506101db60048036038101908080359060200190929190505050610356565b6040518082815260200191505060405180910390f35b6000806101fc61037c565b60008481548110151561020b57fe5b9060005260206000209060020201604080519081016040529081600082015481526020016001820154815250509050806000015181602001519250925050915091565b601c81565b60008181548110151561026257fe5b90600052602060002090600202016000915090508060000154908060010154905082565b6000806001601c0360ff1690505b6000811015156102dd576000818154811015156102ad57fe5b906000526020600020906002020160000154831015156102cf5780915061034b565b808060019003915050610294565b6040517f08c379a000000000000000000000000000000000000000000000000000000000815260040180806020018281038252600d8152602001807f426574206e6f7420666f756e640000000000000000000000000000000000000081525060200191505060405180910390fd5b50919050565b600281565b6000600260ff1682101561036d5760009050610377565b600260ff16820390505b919050565b6040805190810160405280600081526020016000815250905600a165627a7a723058203f98b8df8e9af094ed669544bcb390cf69ad3d287b561a7cfeeadc64317a68580029",
  "source": "pragma solidity ^0.4.24;\n\n/*\n*\n*__/\\\\\\\\\\\\\\\\\\\\\\\\\\__________________________________________________/\\\\\\\\\\\\\\\\\\\\\\\\\\______________________________________________\n* _\\/\\\\\\/////////\\\\\\_______________________________________________\\/\\\\\\/////////\\\\\\_______________________________/\\\\\\_________\n*  _\\/\\\\\\_______\\/\\\\\\__/\\\\\\___/\\\\\\\\\\\\\\\\____/\\\\\\\\\\\\\\\\_____/\\\\\\__/\\\\\\_\\/\\\\\\_______\\/\\\\\\______________________________\\/\\\\\\_________\n*   _\\/\\\\\\\\\\\\\\\\\\\\\\\\\\/__\\///___/\\\\\\////\\\\\\__/\\\\\\////\\\\\\___\\//\\\\\\/\\\\\\__\\/\\\\\\\\\\\\\\\\\\\\\\\\\\\\___/\\\\\\\\\\\\\\\\\\_____/\\\\/\\\\\\\\\\\\___\\/\\\\\\\\\\\\\\\\____\n*    _\\/\\\\\\/////////_____/\\\\\\_\\//\\\\\\\\\\\\\\\\\\_\\//\\\\\\\\\\\\\\\\\\____\\//\\\\\\\\\\___\\/\\\\\\/////////\\\\\\_\\////////\\\\\\___\\/\\\\\\////\\\\\\__\\/\\\\\\////\\\\\\__\n*     _\\/\\\\\\_____________\\/\\\\\\__\\///////\\\\\\__\\///////\\\\\\_____\\//\\\\\\____\\/\\\\\\_______\\/\\\\\\___/\\\\\\\\\\\\\\\\\\\\__\\/\\\\\\__\\//\\\\\\_\\/\\\\\\\\\\\\\\\\/___\n*      _\\/\\\\\\_____________\\/\\\\\\__/\\\\_____\\\\\\__/\\\\_____\\\\\\__/\\\\_/\\\\\\_____\\/\\\\\\_______\\/\\\\\\__/\\\\\\/////\\\\\\__\\/\\\\\\___\\/\\\\\\_\\/\\\\\\///\\\\\\___\n*       _\\/\\\\\\_____________\\/\\\\\\_\\//\\\\\\\\\\\\\\\\__\\//\\\\\\\\\\\\\\\\__\\//\\\\\\\\/______\\/\\\\\\\\\\\\\\\\\\\\\\\\\\/__\\//\\\\\\\\\\\\\\\\/\\\\_\\/\\\\\\___\\/\\\\\\_\\/\\\\\\_\\///\\\\\\_\n*        _\\///______________\\///___\\////////____\\////////____\\////________\\/////////////_____\\////////\\//__\\///____\\///__\\///____\\///__\n*/\n\nimport \"./Ownable.sol\";\nimport \"./SafeMath.sol\";\n\ncontract Betting {\n\n    uint8 public constant betsCount = 28;\n    uint8 public constant betKillCount = 2;\n    struct Bet {\n        uint256 minSum;     // min value eth for choose this bet\n        uint256 cooldown;   // time for reset timer\n    }\n\n    Bet[] public bets;\n\n    constructor() public {\n        bets.push(Bet(0.01 ether, 86400));  // 24 hour\n        bets.push(Bet(0.02 ether, 82800));  // 23 hour\n        bets.push(Bet(0.03 ether, 79200));  // 22 hour\n        bets.push(Bet(0.04 ether, 75600));  // 21 hour\n        bets.push(Bet(0.05 ether, 72000));  // 20 hour\n        bets.push(Bet(0.06 ether, 68400));  // 19 hour\n        bets.push(Bet(0.07 ether, 64800));  // 18 hour\n        bets.push(Bet(0.08 ether, 61200));  // 17 hour\n        bets.push(Bet(0.09 ether, 57600));  // 16 hour\n        bets.push(Bet(0.1 ether, 54000));   // 15 hour\n        bets.push(Bet(0.11 ether, 50400));  // 14 hour\n        bets.push(Bet(0.12 ether, 46800));  // 13 hour\n        bets.push(Bet(0.13 ether, 43200));  // 12 hour\n        bets.push(Bet(0.14 ether, 39600));  // 11 hour\n        bets.push(Bet(0.15 ether, 36000));  // 10 hour\n        bets.push(Bet(0.16 ether, 32400));  // 9 hour\n        bets.push(Bet(0.17 ether, 28800));  // 8 hour\n        bets.push(Bet(0.18 ether, 25200));  // 7 hour\n        bets.push(Bet(0.19 ether, 21600));  // 6 hour\n        bets.push(Bet(0.2 ether, 18000));   // 5 hour\n        bets.push(Bet(0.21 ether, 14400));  // 4 hour\n        bets.push(Bet(0.22 ether, 10800));  // 3 hour\n        bets.push(Bet(0.25 ether, 7200));   // 2 hour\n        bets.push(Bet(0.5 ether, 3600));    // 1 hour\n        bets.push(Bet(1 ether, 2400));      // 40 min\n        bets.push(Bet(5 ether, 1200));      // 20 min\n        bets.push(Bet(10 ether, 600));      // 10 min\n        bets.push(Bet(50 ether, 300));      // 5 min\n    }\n\n    function getBet(uint256 _betIndex) public view returns(uint256, uint256) {\n        Bet memory bet = bets[_betIndex];\n        return (bet.minSum, bet.cooldown);\n    }\n\n    function getBetIndex(uint256 _sum) public view returns(uint256) {\n        for (uint256 i = betsCount - 1; i >= 0; i--) {\n            if (_sum >= bets[i].minSum) return i;\n        }\n\n        revert('Bet not found');\n    }\n\n    function getMinBetIndexForKill(uint256 _index) public view returns(uint256) {\n        if (_index < betKillCount) return 0;\n\n        return _index - betKillCount;\n    }\n\n}\n\ncontract PiggyBank is Ownable, Betting {\n\n    using SafeMath for uint256;\n\n    event NewRound(uint256 _roundId, uint256 _endTime);\n    event CloseRound(uint256 _roundId);\n    event UpdateRound(uint256 _roundId, address _winner, uint256 _endTime, uint256 _cap);\n    event Test(uint256 test);\n\n    struct Round {\n        uint256 endTime;\n        uint256 cap;\n        uint256 lastBetIndex;\n        address winner;\n    }\n\n    Round[] public rounds;\n    uint256 public currentRound;\n    uint256 public constant defaultRoundTime = 86400;   // 24 hours\n    uint256 public constant ownerDistribution = 15;     // 15%\n    uint256 public constant referrerDistribution = 5;   // 5%\n    mapping (address => address) public playerToReferrer;\n\n    constructor() public {\n\n    }\n\n    function getRoundInfo(uint256 _roundId) public view returns(uint256, uint256, uint256, address) {\n        Round memory round = rounds[_roundId];\n        return (round.endTime, round.cap, round.lastBetIndex, round.winner);\n    }\n\n    function _payToWinner(uint256 _roundId) private {\n        rounds[currentRound].winner.transfer(rounds[currentRound].cap);\n    }\n\n    function _startNewRoundIfNeeded() private {\n        if (rounds.length > currentRound) return;\n\n        uint256 roundId = rounds.push(Round(now + defaultRoundTime, 0, 0, 0x0)) - 1;\n        emit NewRound(roundId, now);\n    }\n\n    function _closeRoundIfNeeded() private {\n        if (rounds.length <= currentRound) return;\n        if (now <= rounds[currentRound].endTime) return;\n\n        _payToWinner(currentRound);\n        currentRound = currentRound.add(1);\n        emit CloseRound(currentRound - 1);\n    }\n\n    function depositRef(address _referrer) payable public {\n        uint256 betIndex = getBetIndex(msg.value);\n        emit Test(betIndex);\n        // close if needed\n        _closeRoundIfNeeded();\n\n        // for new rounds\n        _startNewRoundIfNeeded();\n\n        require(betIndex >= getMinBetIndexForKill(rounds[currentRound].lastBetIndex), \"More bet value required\");\n        Bet storage bet = bets[betIndex];\n\n        // work with actual\n        rounds[currentRound].cap = rounds[currentRound].cap.add(msg.value * (100 - ownerDistribution) / 100);\n        rounds[currentRound].endTime = now.add(bet.cooldown);\n        rounds[currentRound].winner = msg.sender;\n\n        // distribution\n        uint256 ownerPercent = ownerDistribution;\n        if (playerToReferrer[msg.sender] == 0x0 && _referrer != 0x0 && _referrer != msg.sender) playerToReferrer[msg.sender] = _referrer;\n        if (playerToReferrer[msg.sender] != 0x0) {\n            playerToReferrer[msg.sender].transfer(msg.value * referrerDistribution / 100);\n            ownerPercent = ownerPercent.sub(referrerDistribution);\n        }\n        owner.transfer(msg.value * ownerPercent / 100);\n\n        emit UpdateRound(currentRound, rounds[currentRound].winner, rounds[currentRound].endTime, rounds[currentRound].cap);\n    }\n\n    function deposit() payable public {\n        depositRef(0x0);\n    }\n\n    function payWinCap() public {\n        _closeRoundIfNeeded();\n    }\n\n    function resetLastRoundTimer() public {\n        rounds[currentRound].endTime = now + 60;\n    }\n\n}\n",
  "sourcePath": "/Users/alexey/Projects/DApps/PiggyBank/contracts/PiggyBank.sol",
  "compiler": {
    "name": "solc",
    "version": "0.4.24+commit.e67f0147.Emscripten.clang"
  },
  "schemaVersion": "2.0.1",
  "updatedAt": "2018-12-05T20:58:53.850Z"
}