{
  "contractName": "PiggyBank",
  "abi": [
    {
      "constant": true,
      "inputs": [
        {
          "name": "_betIndex",
          "type": "uint256"
        }
      ],
      "name": "getBet",
      "outputs": [
        {
          "name": "",
          "type": "uint256"
        },
        {
          "name": "",
          "type": "uint256"
        }
      ],
      "payable": false,
      "stateMutability": "view",
      "type": "function"
    },
    {
      "constant": true,
      "inputs": [],
      "name": "betsCount",
      "outputs": [
        {
          "name": "",
          "type": "uint8"
        }
      ],
      "payable": false,
      "stateMutability": "view",
      "type": "function"
    },
    {
      "constant": true,
      "inputs": [
        {
          "name": "",
          "type": "uint256"
        }
      ],
      "name": "bets",
      "outputs": [
        {
          "name": "minSum",
          "type": "uint256"
        },
        {
          "name": "cooldown",
          "type": "uint256"
        }
      ],
      "payable": false,
      "stateMutability": "view",
      "type": "function"
    },
    {
      "constant": true,
      "inputs": [],
      "name": "developersPercent",
      "outputs": [
        {
          "name": "",
          "type": "uint256"
        }
      ],
      "payable": false,
      "stateMutability": "view",
      "type": "function"
    },
    {
      "constant": true,
      "inputs": [],
      "name": "referrerDistribution",
      "outputs": [
        {
          "name": "",
          "type": "uint256"
        }
      ],
      "payable": false,
      "stateMutability": "view",
      "type": "function"
    },
    {
      "constant": true,
      "inputs": [],
      "name": "defaultRoundTime",
      "outputs": [
        {
          "name": "",
          "type": "uint256"
        }
      ],
      "payable": false,
      "stateMutability": "view",
      "type": "function"
    },
    {
      "constant": true,
      "inputs": [
        {
          "name": "_sum",
          "type": "uint256"
        }
      ],
      "name": "getBetIndex",
      "outputs": [
        {
          "name": "",
          "type": "uint256"
        }
      ],
      "payable": false,
      "stateMutability": "view",
      "type": "function"
    },
    {
      "constant": true,
      "inputs": [],
      "name": "ownerDistribution",
      "outputs": [
        {
          "name": "",
          "type": "uint256"
        }
      ],
      "payable": false,
      "stateMutability": "view",
      "type": "function"
    },
    {
      "constant": true,
      "inputs": [],
      "name": "betKillCount",
      "outputs": [
        {
          "name": "",
          "type": "uint8"
        }
      ],
      "payable": false,
      "stateMutability": "view",
      "type": "function"
    },
    {
      "constant": true,
      "inputs": [],
      "name": "currentRound",
      "outputs": [
        {
          "name": "",
          "type": "uint256"
        }
      ],
      "payable": false,
      "stateMutability": "view",
      "type": "function"
    },
    {
      "constant": true,
      "inputs": [
        {
          "name": "",
          "type": "uint256"
        }
      ],
      "name": "rounds",
      "outputs": [
        {
          "name": "endTime",
          "type": "uint256"
        },
        {
          "name": "cap",
          "type": "uint256"
        },
        {
          "name": "lastBetIndex",
          "type": "uint256"
        },
        {
          "name": "winner",
          "type": "address"
        }
      ],
      "payable": false,
      "stateMutability": "view",
      "type": "function"
    },
    {
      "constant": true,
      "inputs": [],
      "name": "owner",
      "outputs": [
        {
          "name": "",
          "type": "address"
        }
      ],
      "payable": false,
      "stateMutability": "view",
      "type": "function"
    },
    {
      "constant": true,
      "inputs": [
        {
          "name": "",
          "type": "address"
        }
      ],
      "name": "playerToReferrer",
      "outputs": [
        {
          "name": "",
          "type": "address"
        }
      ],
      "payable": false,
      "stateMutability": "view",
      "type": "function"
    },
    {
      "constant": true,
      "inputs": [
        {
          "name": "_index",
          "type": "uint256"
        }
      ],
      "name": "getMinBetIndexForKill",
      "outputs": [
        {
          "name": "",
          "type": "uint256"
        }
      ],
      "payable": false,
      "stateMutability": "view",
      "type": "function"
    },
    {
      "constant": false,
      "inputs": [
        {
          "name": "newOwner",
          "type": "address"
        }
      ],
      "name": "transferOwnership",
      "outputs": [],
      "payable": false,
      "stateMutability": "nonpayable",
      "type": "function"
    },
    {
      "inputs": [],
      "payable": false,
      "stateMutability": "nonpayable",
      "type": "constructor"
    },
    {
      "anonymous": false,
      "inputs": [
        {
          "indexed": false,
          "name": "_roundId",
          "type": "uint256"
        },
        {
          "indexed": false,
          "name": "_endTime",
          "type": "uint256"
        }
      ],
      "name": "NewRound",
      "type": "event"
    },
    {
      "anonymous": false,
      "inputs": [
        {
          "indexed": false,
          "name": "_roundId",
          "type": "uint256"
        }
      ],
      "name": "CloseRound",
      "type": "event"
    },
    {
      "anonymous": false,
      "inputs": [
        {
          "indexed": false,
          "name": "_roundId",
          "type": "uint256"
        },
        {
          "indexed": false,
          "name": "_winner",
          "type": "address"
        },
        {
          "indexed": false,
          "name": "_endTime",
          "type": "uint256"
        },
        {
          "indexed": false,
          "name": "_cap",
          "type": "uint256"
        }
      ],
      "name": "UpdateRound",
      "type": "event"
    },
    {
      "anonymous": false,
      "inputs": [
        {
          "indexed": false,
          "name": "test",
          "type": "uint256"
        }
      ],
      "name": "Test",
      "type": "event"
    },
    {
      "anonymous": false,
      "inputs": [
        {
          "indexed": true,
          "name": "previousOwner",
          "type": "address"
        },
        {
          "indexed": true,
          "name": "newOwner",
          "type": "address"
        }
      ],
      "name": "OwnershipTransferred",
      "type": "event"
    },
    {
      "constant": true,
      "inputs": [
        {
          "name": "_roundId",
          "type": "uint256"
        }
      ],
      "name": "getRoundInfo",
      "outputs": [
        {
          "name": "",
          "type": "uint256"
        },
        {
          "name": "",
          "type": "uint256"
        },
        {
          "name": "",
          "type": "uint256"
        },
        {
          "name": "",
          "type": "address"
        }
      ],
      "payable": false,
      "stateMutability": "view",
      "type": "function"
    },
    {
      "constant": false,
      "inputs": [
        {
          "name": "_referrer",
          "type": "address"
        }
      ],
      "name": "depositRef",
      "outputs": [],
      "payable": true,
      "stateMutability": "payable",
      "type": "function"
    },
    {
      "constant": false,
      "inputs": [],
      "name": "deposit",
      "outputs": [],
      "payable": true,
      "stateMutability": "payable",
      "type": "function"
    },
    {
      "constant": false,
      "inputs": [],
      "name": "payWinCap",
      "outputs": [],
      "payable": false,
      "stateMutability": "nonpayable",
      "type": "function"
    }
  ],
  "bytecode": "0x608060405234801561001057600080fd5b50336000806101000a81548173ffffffffffffffffffffffffffffffffffffffff021916908373ffffffffffffffffffffffffffffffffffffffff16021790555060016040805190810160405280662386f26fc100008152602001620151808152509080600181540180825580915050906001820390600052602060002090600202016000909192909190915060008201518160000155602082015181600101555050506001604080519081016040528066470de4df82000081526020016201437081525090806001815401808255809150509060018203906000526020600020906002020160009091929091909150600082015181600001556020820151816001015550505060016040805190810160405280666a94d74f43000081526020016201356081525090806001815401808255809150509060018203906000526020600020906002020160009091929091909150600082015181600001556020820151816001015550505060016040805190810160405280668e1bc9bf0400008152602001620127508152509080600181540180825580915050906001820390600052602060002090600202016000909192909190915060008201518160000155602082015181600101555050506001604080519081016040528066b1a2bc2ec500008152602001620119408152509080600181540180825580915050906001820390600052602060002090600202016000909192909190915060008201518160000155602082015181600101555050506001604080519081016040528066d529ae9e860000815260200162010b308152509080600181540180825580915050906001820390600052602060002090600202016000909192909190915060008201518160000155602082015181600101555050506001604080519081016040528066f8b0a10e470000815260200161fd208152509080600181540180825580915050906001820390600052602060002090600202016000909192909190915060008201518160000155602082015181600101555050506001604080519081016040528067011c37937e080000815260200161ef108152509080600181540180825580915050906001820390600052602060002090600202016000909192909190915060008201518160000155602082015181600101555050506001604080519081016040528067013fbe85edc90000815260200161e1008152509080600181540180825580915050906001820390600052602060002090600202016000909192909190915060008201518160000155602082015181600101555050506001604080519081016040528067016345785d8a0000815260200161d2f081525090806001815401808255809150509060018203906000526020600020906002020160009091929091909150600082015181600001556020820151816001015550505060016040805190810160405280670186cc6acd4b0000815260200161c4e0815250908060018154018082558091505090600182039060005260206000209060020201600090919290919091506000820151816000015560208201518160010155505050600160408051908101604052806701aa535d3d0c0000815260200161b6d0815250908060018154018082558091505090600182039060005260206000209060020201600090919290919091506000820151816000015560208201518160010155505050600160408051908101604052806701cdda4faccd0000815260200161a8c0815250908060018154018082558091505090600182039060005260206000209060020201600090919290919091506000820151816000015560208201518160010155505050600160408051908101604052806701f161421c8e00008152602001619ab081525090806001815401808255809150509060018203906000526020600020906002020160009091929091909150600082015181600001556020820151816001015550505060016040805190810160405280670214e8348c4f00008152602001618ca0815250908060018154018082558091505090600182039060005260206000209060020201600090919290919091506000820151816000015560208201518160010155505050600160408051908101604052806702386f26fc1000008152602001617e908152509080600181540180825580915050906001820390600052602060002090600202016000909192909190915060008201518160000155602082015181600101555050506001604080519081016040528067025bf6196bd1000081526020016170808152509080600181540180825580915050906001820390600052602060002090600202016000909192909190915060008201518160000155602082015181600101555050506001604080519081016040528067027f7d0bdb9200008152602001616270815250908060018154018082558091505090600182039060005260206000209060020201600090919290919091506000820151816000015560208201518160010155505050600160408051908101604052806702a303fe4b5300008152602001615460815250908060018154018082558091505090600182039060005260206000209060020201600090919290919091506000820151816000015560208201518160010155505050600160408051908101604052806702c68af0bb1400008152602001614650815250908060018154018082558091505090600182039060005260206000209060020201600090919290919091506000820151816000015560208201518160010155505050600160408051908101604052806702ea11e32ad5000081526020016138408152509080600181540180825580915050906001820390600052602060002090600202016000909192909190915060008201518160000155602082015181600101555050506001604080519081016040528067030d98d59a9600008152602001612a30815250908060018154018082558091505090600182039060005260206000209060020201600090919290919091506000820151816000015560208201518160010155505050600160408051908101604052806703782dace9d900008152602001611c20815250908060018154018082558091505090600182039060005260206000209060020201600090919290919091506000820151816000015560208201518160010155505050600160408051908101604052806706f05b59d3b200008152602001610e1081525090806001815401808255809150509060018203906000526020600020906002020160009091929091909150600082015181600001556020820151816001015550505060016040805190810160405280670de0b6b3a7640000815260200161096081525090806001815401808255809150509060018203906000526020600020906002020160009091929091909150600082015181600001556020820151816001015550505060016040805190810160405280674563918244f4000081526020016104b081525090806001815401808255809150509060018203906000526020600020906002020160009091929091909150600082015181600001556020820151816001015550505060016040805190810160405280678ac7230489e800008152602001610258815250908060018154018082558091505090600182039060005260206000209060020201600090919290919091506000820151816000015560208201518160010155505050600160408051908101604052806802b5e3af16b1880000815260200161012c81525090806001815401808255809150509060018203906000526020600020906002020160009091929091909150600082015181600001556020820151816001015550505061140480610b346000396000f300608060405260043610610107576000357c0100000000000000000000000000000000000000000000000000000000900463ffffffff168063061e494f1461010c5780631a8ba72f1461015457806322af00fa146101855780633a033915146101cd578063431f8a2d146101f85780634d2d835d1461022357806368eaebb41461024e57806369f873ec1461028f5780637d4da0ad146102ba578063809bbf17146102eb57806388c3ffb0146103025780638a19c8bc146103845780638c65c81f146103af5780638da5cb5b14610431578063c313067b14610488578063d0e30db0146104be578063d5b502ba146104c8578063d72f61bf1461054b578063f2fde38b1461058c575b600080fd5b34801561011857600080fd5b50610137600480360381019080803590602001909291905050506105cf565b604051808381526020018281526020019250505060405180910390f35b34801561016057600080fd5b5061016961062c565b604051808260ff1660ff16815260200191505060405180910390f35b34801561019157600080fd5b506101b060048036038101908080359060200190929190505050610631565b604051808381526020018281526020019250505060405180910390f35b3480156101d957600080fd5b506101e2610664565b6040518082815260200191505060405180910390f35b34801561020457600080fd5b5061020d610669565b6040518082815260200191505060405180910390f35b34801561022f57600080fd5b5061023861066e565b6040518082815260200191505060405180910390f35b34801561025a57600080fd5b5061027960048036038101908080359060200190929190505050610675565b6040518082815260200191505060405180910390f35b34801561029b57600080fd5b506102a4610740565b6040518082815260200191505060405180910390f35b3480156102c657600080fd5b506102cf610745565b604051808260ff1660ff16815260200191505060405180910390f35b3480156102f757600080fd5b5061030061074a565b005b34801561030e57600080fd5b5061032d60048036038101908080359060200190929190505050610754565b604051808581526020018481526020018381526020018273ffffffffffffffffffffffffffffffffffffffff1673ffffffffffffffffffffffffffffffffffffffff16815260200194505050505060405180910390f35b34801561039057600080fd5b50610399610825565b6040518082815260200191505060405180910390f35b3480156103bb57600080fd5b506103da6004803603810190808035906020019092919050505061082b565b604051808581526020018481526020018381526020018273ffffffffffffffffffffffffffffffffffffffff1673ffffffffffffffffffffffffffffffffffffffff16815260200194505050505060405180910390f35b34801561043d57600080fd5b5061044661088a565b604051808273ffffffffffffffffffffffffffffffffffffffff1673ffffffffffffffffffffffffffffffffffffffff16815260200191505060405180910390f35b6104bc600480360381019080803573ffffffffffffffffffffffffffffffffffffffff1690602001909291905050506108af565b005b6104c6610ef8565b005b3480156104d457600080fd5b50610509600480360381019080803573ffffffffffffffffffffffffffffffffffffffff169060200190929190505050610f04565b604051808273ffffffffffffffffffffffffffffffffffffffff1673ffffffffffffffffffffffffffffffffffffffff16815260200191505060405180910390f35b34801561055757600080fd5b5061057660048036038101908080359060200190929190505050610f37565b6040518082815260200191505060405180910390f35b34801561059857600080fd5b506105cd600480360381019080803573ffffffffffffffffffffffffffffffffffffffff169060200190929190505050610f5d565b005b6000806105da61137f565b6001848154811015156105e957fe5b9060005260206000209060020201604080519081016040529081600082015481526020016001820154815250509050806000015181602001519250925050915091565b601c81565b60018181548110151561064057fe5b90600052602060002090600202016000915090508060000154908060010154905082565b600f81565b600581565b6201518081565b6000806001601c0360ff1690505b6000811015156106cc5760018181548110151561069c57fe5b906000526020600020906002020160000154831015156106be5780915061073a565b808060019003915050610683565b6040517f08c379a000000000000000000000000000000000000000000000000000000000815260040180806020018281038252600d8152602001807f426574206e6f7420666f756e640000000000000000000000000000000000000081525060200191505060405180910390fd5b50919050565b600f81565b600281565b6107526110b2565b565b600080600080610762611399565b60028681548110151561077157fe5b9060005260206000209060040201608060405190810160405290816000820154815260200160018201548152602001600282015481526020016003820160009054906101000a900473ffffffffffffffffffffffffffffffffffffffff1673ffffffffffffffffffffffffffffffffffffffff1673ffffffffffffffffffffffffffffffffffffffff1681525050905080600001518160200151826040015183606001519450945094509450509193509193565b60035481565b60028181548110151561083a57fe5b90600052602060002090600402016000915090508060000154908060010154908060020154908060030160009054906101000a900473ffffffffffffffffffffffffffffffffffffffff16905084565b6000809054906101000a900473ffffffffffffffffffffffffffffffffffffffff1681565b60008060006108bd34610675565b92507f63a242a632efe33c0e210e04e4173612a17efa4f16aa4890bc7e46caece80de0836040518082815260200191505060405180910390a16108fe6110b2565b61090661115d565b610931600260035481548110151561091a57fe5b906000526020600020906004020160020154610f37565b83101515156109a8576040517f08c379a00000000000000000000000000000000000000000000000000000000081526004018080602001828103825260178152602001807f4d6f7265206265742076616c756520726571756972656400000000000000000081525060200191505060405180910390fd5b6001838154811015156109b757fe5b90600052602060002090600202019150610a0e6064600f60640334028115156109dc57fe5b0460026003548154811015156109ee57fe5b90600052602060002090600402016001015461128f90919063ffffffff16565b6002600354815481101515610a1f57fe5b906000526020600020906004020160010181905550610a4b82600101544261128f90919063ffffffff16565b6002600354815481101515610a5c57fe5b906000526020600020906004020160000181905550336002600354815481101515610a8357fe5b906000526020600020906004020160030160006101000a81548173ffffffffffffffffffffffffffffffffffffffff021916908373ffffffffffffffffffffffffffffffffffffffff160217905550600f90506000600460003373ffffffffffffffffffffffffffffffffffffffff1673ffffffffffffffffffffffffffffffffffffffff16815260200190815260200160002060009054906101000a900473ffffffffffffffffffffffffffffffffffffffff1673ffffffffffffffffffffffffffffffffffffffff16148015610b72575060008473ffffffffffffffffffffffffffffffffffffffff1614155b8015610baa57503373ffffffffffffffffffffffffffffffffffffffff168473ffffffffffffffffffffffffffffffffffffffff1614155b15610c2e5783600460003373ffffffffffffffffffffffffffffffffffffffff1673ffffffffffffffffffffffffffffffffffffffff16815260200190815260200160002060006101000a81548173ffffffffffffffffffffffffffffffffffffffff021916908373ffffffffffffffffffffffffffffffffffffffff1602179055505b6000600460003373ffffffffffffffffffffffffffffffffffffffff1673ffffffffffffffffffffffffffffffffffffffff16815260200190815260200160002060009054906101000a900473ffffffffffffffffffffffffffffffffffffffff1673ffffffffffffffffffffffffffffffffffffffff16141515610d7957600460003373ffffffffffffffffffffffffffffffffffffffff1673ffffffffffffffffffffffffffffffffffffffff16815260200190815260200160002060009054906101000a900473ffffffffffffffffffffffffffffffffffffffff1673ffffffffffffffffffffffffffffffffffffffff166108fc606460053402811515610d3557fe5b049081150290604051600060405180830381858888f19350505050158015610d61573d6000803e3d6000fd5b50610d766005826112b090919063ffffffff16565b90505b6000809054906101000a900473ffffffffffffffffffffffffffffffffffffffff1673ffffffffffffffffffffffffffffffffffffffff166108fc6064833402811515610dc257fe5b049081150290604051600060405180830381858888f19350505050158015610dee573d6000803e3d6000fd5b507f68712f4184b7f4071aa807e5e2200e35208ae8574af6d383eca9e60477b756c06003546002600354815481101515610e2457fe5b906000526020600020906004020160030160009054906101000a900473ffffffffffffffffffffffffffffffffffffffff166002600354815481101515610e6757fe5b9060005260206000209060040201600001546002600354815481101515610e8a57fe5b906000526020600020906004020160010154604051808581526020018473ffffffffffffffffffffffffffffffffffffffff1673ffffffffffffffffffffffffffffffffffffffff16815260200183815260200182815260200194505050505060405180910390a150505050565b610f0260006108af565b565b60046020528060005260406000206000915054906101000a900473ffffffffffffffffffffffffffffffffffffffff1681565b6000600260ff16821015610f4e5760009050610f58565b600260ff16820390505b919050565b6000809054906101000a900473ffffffffffffffffffffffffffffffffffffffff1673ffffffffffffffffffffffffffffffffffffffff163373ffffffffffffffffffffffffffffffffffffffff16141515610fb857600080fd5b600073ffffffffffffffffffffffffffffffffffffffff168173ffffffffffffffffffffffffffffffffffffffff1614151515610ff457600080fd5b8073ffffffffffffffffffffffffffffffffffffffff166000809054906101000a900473ffffffffffffffffffffffffffffffffffffffff1673ffffffffffffffffffffffffffffffffffffffff167f8be0079c531659141344cd1fd0a4f28419497f9722a3daafe3b4186f6b6457e060405160405180910390a3806000806101000a81548173ffffffffffffffffffffffffffffffffffffffff021916908373ffffffffffffffffffffffffffffffffffffffff16021790555050565b6003546002805490501115156110c75761115b565b60026003548154811015156110d857fe5b906000526020600020906004020160000154421115156110f75761115b565b6111026003546112d1565b611118600160035461128f90919063ffffffff16565b6003819055507fd1014bd15f738385a79c60003df93dec366bb7fe82c8796e4e5167d26f67005a6001600354036040518082815260200191505060405180910390a15b565b600060035460028054905011156111735761128c565b6001600260806040519081016040528062015180420181526020016000815260200160008152602001600073ffffffffffffffffffffffffffffffffffffffff168152509080600181540180825580915050906001820390600052602060002090600402016000909192909190915060008201518160000155602082015181600101556040820151816002015560608201518160030160006101000a81548173ffffffffffffffffffffffffffffffffffffffff021916908373ffffffffffffffffffffffffffffffffffffffff16021790555050500390507f1237ad121dfe1e3abc3b4254161693eb4add51b458114b8c15502bea94a6b02b8142604051808381526020018281526020019250505060405180910390a15b50565b60008082840190508381101515156112a657600080fd5b8091505092915050565b6000808383111515156112c257600080fd5b82840390508091505092915050565b60026003548154811015156112e257fe5b906000526020600020906004020160030160009054906101000a900473ffffffffffffffffffffffffffffffffffffffff1673ffffffffffffffffffffffffffffffffffffffff166108fc600260035481548110151561133e57fe5b9060005260206000209060040201600101549081150290604051600060405180830381858888f1935050505015801561137b573d6000803e3d6000fd5b5050565b604080519081016040528060008152602001600081525090565b608060405190810160405280600081526020016000815260200160008152602001600073ffffffffffffffffffffffffffffffffffffffff16815250905600a165627a7a7230582086b6eb1f3127b23ffcff73b90c3f64f62449526451438533c6567d6cd4117a610029",
  "source": "pragma solidity ^0.4.24;\n\n/*\n*\n*__/\\\\\\\\\\\\\\\\\\\\\\\\\\__________________________________________________/\\\\\\\\\\\\\\\\\\\\\\\\\\______________________________________________\n* _\\/\\\\\\/////////\\\\\\_______________________________________________\\/\\\\\\/////////\\\\\\_______________________________/\\\\\\_________\n*  _\\/\\\\\\_______\\/\\\\\\__/\\\\\\___/\\\\\\\\\\\\\\\\____/\\\\\\\\\\\\\\\\_____/\\\\\\__/\\\\\\_\\/\\\\\\_______\\/\\\\\\______________________________\\/\\\\\\_________\n*   _\\/\\\\\\\\\\\\\\\\\\\\\\\\\\/__\\///___/\\\\\\////\\\\\\__/\\\\\\////\\\\\\___\\//\\\\\\/\\\\\\__\\/\\\\\\\\\\\\\\\\\\\\\\\\\\\\___/\\\\\\\\\\\\\\\\\\_____/\\\\/\\\\\\\\\\\\___\\/\\\\\\\\\\\\\\\\____\n*    _\\/\\\\\\/////////_____/\\\\\\_\\//\\\\\\\\\\\\\\\\\\_\\//\\\\\\\\\\\\\\\\\\____\\//\\\\\\\\\\___\\/\\\\\\/////////\\\\\\_\\////////\\\\\\___\\/\\\\\\////\\\\\\__\\/\\\\\\////\\\\\\__\n*     _\\/\\\\\\_____________\\/\\\\\\__\\///////\\\\\\__\\///////\\\\\\_____\\//\\\\\\____\\/\\\\\\_______\\/\\\\\\___/\\\\\\\\\\\\\\\\\\\\__\\/\\\\\\__\\//\\\\\\_\\/\\\\\\\\\\\\\\\\/___\n*      _\\/\\\\\\_____________\\/\\\\\\__/\\\\_____\\\\\\__/\\\\_____\\\\\\__/\\\\_/\\\\\\_____\\/\\\\\\_______\\/\\\\\\__/\\\\\\/////\\\\\\__\\/\\\\\\___\\/\\\\\\_\\/\\\\\\///\\\\\\___\n*       _\\/\\\\\\_____________\\/\\\\\\_\\//\\\\\\\\\\\\\\\\__\\//\\\\\\\\\\\\\\\\__\\//\\\\\\\\/______\\/\\\\\\\\\\\\\\\\\\\\\\\\\\/__\\//\\\\\\\\\\\\\\\\/\\\\_\\/\\\\\\___\\/\\\\\\_\\/\\\\\\_\\///\\\\\\_\n*        _\\///______________\\///___\\////////____\\////////____\\////________\\/////////////_____\\////////\\//__\\///____\\///__\\///____\\///__\n*/\n\nimport \"./Ownable.sol\";\nimport \"./SafeMath.sol\";\n\ncontract Betting {\n\n    uint8 public constant betsCount = 28;\n    uint8 public constant betKillCount = 2;\n    struct Bet {\n        uint256 minSum;     // min value eth for choose this bet\n        uint256 cooldown;   // time for reset timer\n    }\n\n    Bet[] public bets;\n\n    constructor() public {\n        bets.push(Bet(0.01 ether, 86400));  // 24 hour\n        bets.push(Bet(0.02 ether, 82800));  // 23 hour\n        bets.push(Bet(0.03 ether, 79200));  // 22 hour\n        bets.push(Bet(0.04 ether, 75600));  // 21 hour\n        bets.push(Bet(0.05 ether, 72000));  // 20 hour\n        bets.push(Bet(0.06 ether, 68400));  // 19 hour\n        bets.push(Bet(0.07 ether, 64800));  // 18 hour\n        bets.push(Bet(0.08 ether, 61200));  // 17 hour\n        bets.push(Bet(0.09 ether, 57600));  // 16 hour\n        bets.push(Bet(0.1 ether, 54000));   // 15 hour\n        bets.push(Bet(0.11 ether, 50400));  // 14 hour\n        bets.push(Bet(0.12 ether, 46800));  // 13 hour\n        bets.push(Bet(0.13 ether, 43200));  // 12 hour\n        bets.push(Bet(0.14 ether, 39600));  // 11 hour\n        bets.push(Bet(0.15 ether, 36000));  // 10 hour\n        bets.push(Bet(0.16 ether, 32400));  // 9 hour\n        bets.push(Bet(0.17 ether, 28800));  // 8 hour\n        bets.push(Bet(0.18 ether, 25200));  // 7 hour\n        bets.push(Bet(0.19 ether, 21600));  // 6 hour\n        bets.push(Bet(0.2 ether, 18000));   // 5 hour\n        bets.push(Bet(0.21 ether, 14400));  // 4 hour\n        bets.push(Bet(0.22 ether, 10800));  // 3 hour\n        bets.push(Bet(0.25 ether, 7200));   // 2 hour\n        bets.push(Bet(0.5 ether, 3600));    // 1 hour\n        bets.push(Bet(1 ether, 2400));      // 40 min\n        bets.push(Bet(5 ether, 1200));      // 20 min\n        bets.push(Bet(10 ether, 600));      // 10 min\n        bets.push(Bet(50 ether, 300));      // 5 min\n    }\n\n    function getBet(uint256 _betIndex) public view returns(uint256, uint256) {\n        Bet memory bet = bets[_betIndex];\n        return (bet.minSum, bet.cooldown);\n    }\n\n    function getBetIndex(uint256 _sum) public view returns(uint256) {\n        for (uint256 i = betsCount - 1; i >= 0; i--) {\n            if (_sum >= bets[i].minSum) return i;\n        }\n\n        revert('Bet not found');\n    }\n\n    function getMinBetIndexForKill(uint256 _index) public view returns(uint256) {\n        if (_index < betKillCount) return 0;\n\n        return _index - betKillCount;\n    }\n\n}\n\ncontract PiggyBank is Ownable, Betting {\n\n    using SafeMath for uint256;\n\n    event NewRound(uint256 _roundId, uint256 _endTime);\n    event CloseRound(uint256 _roundId);\n    event UpdateRound(uint256 _roundId, address _winner, uint256 _endTime, uint256 _cap);\n    event Test(uint256 test);\n\n    struct Round {\n        uint256 endTime;\n        uint256 cap;\n        uint256 lastBetIndex;\n        address winner;\n    }\n\n    Round[] public rounds;\n    uint256 public currentRound;\n    uint256 public constant defaultRoundTime = 86400;   // 24 hours\n    uint256 public constant ownerDistribution = 15;     // 15%\n    uint256 public constant referrerDistribution = 5;   // 5%\n    mapping (address => address) public playerToReferrer;\n\n    constructor() public {\n\n    }\n\n    function getRoundInfo(uint256 _roundId) public view returns(uint256, uint256, uint256, address) {\n        Round memory round = rounds[_roundId];\n        return (round.endTime, round.cap, round.lastBetIndex, round.winner);\n    }\n\n    function _payToWinner(uint256 _roundId) private {\n        rounds[currentRound].winner.transfer(rounds[currentRound].cap);\n    }\n\n    function _startNewRoundIfNeeded() private {\n        if (rounds.length > currentRound) return;\n\n        uint256 roundId = rounds.push(Round(now + defaultRoundTime, 0, 0, 0x0)) - 1;\n        emit NewRound(roundId, now);\n    }\n\n    function _closeRoundIfNeeded() private {\n        if (rounds.length <= currentRound) return;\n        if (now <= rounds[currentRound].endTime) return;\n\n        _payToWinner(currentRound);\n        currentRound = currentRound.add(1);\n        emit CloseRound(currentRound - 1);\n    }\n\n    function depositRef(address _referrer) payable public {\n        uint256 betIndex = getBetIndex(msg.value);\n        emit Test(betIndex);\n        // close if needed\n        _closeRoundIfNeeded();\n\n        // for new rounds\n        _startNewRoundIfNeeded();\n\n        require(betIndex >= getMinBetIndexForKill(rounds[currentRound].lastBetIndex), \"More bet value required\");\n        Bet storage bet = bets[betIndex];\n\n        // work with actual\n        rounds[currentRound].cap = rounds[currentRound].cap.add(msg.value * (100 - ownerDistribution) / 100);\n        rounds[currentRound].endTime = now.add(bet.cooldown);\n        rounds[currentRound].winner = msg.sender;\n\n        // distribution\n        uint256 ownerPercent = ownerDistribution;\n        if (playerToReferrer[msg.sender] == 0x0 && _referrer != 0x0 && _referrer != msg.sender) playerToReferrer[msg.sender] = _referrer;\n        if (playerToReferrer[msg.sender] != 0x0) {\n            playerToReferrer[msg.sender].transfer(msg.value * referrerDistribution / 100);\n            ownerPercent = ownerPercent.sub(referrerDistribution);\n        }\n        owner.transfer(msg.value * ownerPercent / 100);\n\n        emit UpdateRound(currentRound, rounds[currentRound].winner, rounds[currentRound].endTime, rounds[currentRound].cap);\n    }\n\n    function deposit() payable public {\n        depositRef(0x0);\n    }\n\n    function payWinCap() public {\n        _closeRoundIfNeeded();\n    }\n\n}\n",
  "sourcePath": "/Users/alexey/Projects/DApps/PiggyBank/contracts/PiggyBank.sol",
  "compiler": {
    "name": "solc",
    "version": "0.4.24+commit.e67f0147.Emscripten.clang"
  },
  "schemaVersion": "2.0.1",
  "updatedAt": "2018-11-29T12:20:05.248Z"
}